:100000000C94ED010C94490C0C94220C0C94700C83
:100010000C9415020C9415020C9415020C94150204
:100020000C9415020C9415020C9415020C941502F4
:100030000C9415020C9415020C9415020C941502E4
:100040000C94D80B0C9415020C94A60B0C94800BFA
:100050000C9415020C9415020C9415020C941502C4
:100060000C9415020C941502205461726765743D5E
:1000700000205049445F6F75747075743D00506F77
:10008000736974696F6E3D004C2077696C6C2065F4
:1000900078656375746520686F6D696E670A0041E5
:1000A0002077696C6C20746F67676C65206F6E2FAA
:1000B0006F66662073686F77696E67207265677513
:1000C0006C61746F722073746174757320657665EA
:1000D0007279207365636F6E6400482077696C6C79
:1000E000207072696E7420746869732068656C7022
:1000F000206D65737361676520616761696E005784
:100100002077696C6C2073746F72652063757272EE
:10011000656E742076616C756573206F6620502C57
:10012000204920616E64204420706172616D6574A5
:1001300065727320696E746F20454550524F4D00B3
:10014000512077696C6C207072696E74206F7574C1
:10015000207468652063757272656E742076616CB8
:10016000756573206F6620502C204920616E6420D5
:100170004420706172616D657465727300542077FC
:10018000696C6C2073746172742061207365717581
:10019000656E6365206F662072616E646F6D2064AA
:1001A000657374696E6174696F6E7320286265741B
:1001B0007765656E203020616E64203230303029E2
:1001C0002065766572792033207365636F6E647382
:1001D0002E205420616761696E2077696C6C206401
:1001E000697361626C6520746861740058313233E0
:1001F0002073657473207468652074617267657418
:100200002064657374696E6174696F6E20666F72C5
:1002100020746865206D6F746F7220746F203132A6
:100220003320656E636F6465722070756C736573DF
:10023000003F207072696E7473206F75742063754F
:100240007272656E7420656E636F6465722C206FC8
:10025000757470757420616E6420736574706F6955
:100260006E742076616C75657300443132332E33C1
:10027000342073657473206465726976617469767D
:1002800065207465726D20746F203132332E3334E3
:1002900000493132332E3334207365747320696E14
:1002A00074656772616C207465726D20746F2031A3
:1002B00032332E333400503132332E3334207365D1
:1002C00074732070726F706F7274696F6E616C20DE
:1002D0007465726D20746F203132332E33340041D7
:1002E0007661696C61626C652073657269616C200E
:1002F000636F6D6D616E64733A20286C696E65730F
:1003000020656E6420776974682043524C46206FE4
:1003100072204C4629006279206D6973616E000A73
:10032000504944204443206D6F746F7220636F6E98
:1003300074726F6C6C657220616E6420737465708A
:1003400070657220696E7465726661636520656DA3
:10035000756C61746F72002A2A2A20466F756E646C
:10036000205049442076616C756573206F6E20457E
:100370004550524F4D002A2A2A204261642063686A
:1003800065636B73756D0000000000240027002A70
:100390000000000000250028002B000404040404D1
:1003A0000404040202020202020303030303030122
:1003B00002040810204080010204081020010204F9
:1003C00008102000000008000201000003040700DC
:1003D0000000000000000000BB0C11241FBECFEF86
:1003E000D8E0DEBFCDBF11E0A0E0B1E0E0E1FBE28C
:1003F00002C005900D92A83AB107D9F726E0A8EA05
:10040000B1E001C01D92A539B207E1F711E0CDEED0
:10041000D1E004C02197FE010E948015CC3ED10797
:10042000C9F70E94DF0D0C9486150C9400004F92C2
:100430005F926F927F928F929F92AF92BF92CF9274
:10044000DF92EF92FF920F931F93CF93DF9300D031
:1004500000D0CDB7DEB74B015C0129013A0167013D
:10046000780120E030E0A9010E94B81287FDA6C003
:1004700020E030E0A901C301B2010E94B81287FD5B
:100480009DC020E030E0A901C801B6010E94B81269
:1004900087FD94C081E020916B0630916C0621307D
:1004A000310509F080E080938C068092510690928D
:1004B0005206A0925306B0925406409255065092AE
:1004C00056066092570670925806C0925906D0920E
:1004D0005A06E0925B06F0925C0660917F0670918E
:1004E000800680918106909182060E94BD1220E0D4
:1004F00030E04AE754E40E94C21469837A838B8314
:100500009C8380925D0690925E06A0925F06B092F8
:1005100060069B01AC01C301B2010E941E132B01B6
:100520003C014092610650926206609263067092AE
:10053000640629813A814B815C81C701B6010E9422
:10054000C2146B017C01C0926506D0926606E092EF
:100550006706F09268068091690690916A06019795
:1005600069F5A501940160E070E0CB010E9455148B
:1005700060935D0670935E0680935F0690936006BD
:10058000A301920160E070E0CB010E9455146093DA
:100590006106709362068093630690936406A701D8
:1005A000960160E070E0CB010E94551460936506EF
:1005B0007093660680936706909368060F900F907D
:1005C0000F900F90DF91CF911F910F91FF90EF90BF
:1005D000DF90CF90BF90AF909F908F907F906F9063
:1005E0005F904F900895E091A801EE0FEE0F93B148
:1005F00089B1869582709170892B8093A801409172
:10060000A4055091A5056091A6057091A705E80F76
:10061000FF27FF1FEE0FFF1FE35FFE4F80819181D9
:10062000092E000CAA0BBB0B840F951FA61FB71F2A
:100630008093A4059093A505A093A605B093A70564
:100640000895AF92BF92CF92DF92EF92FF920F93F5
:100650001F93CF93DF936C017B018B01040F151F58
:10066000EB015E01AE18BF08C017D10759F06991C0
:10067000D601ED91FC910190F081E02DC601099524
:10068000892B79F7C501DF91CF911F910F91FF90D1
:10069000EF90DF90CF90BF90AF900895FC01538D05
:1006A000448D252F30E0842F90E0821B930B54174C
:1006B00010F0CF96089501970895FC01918D828DD9
:1006C000981761F0A28DAE0FBF2FB11D5D968C9172
:1006D000928D9F5F9F73928F90E008958FEF9FEFB1
:1006E0000895FC01918D828D981731F0828DE80F6D
:1006F000F11D858D90E008958FEF9FEF0895FC0127
:10070000918D228D892F90E0805C9F4F821B9109F3
:100710008F739927089588EA95E00E947F0321E06E
:10072000892B09F420E0822F089580E090E0892B46
:1007300029F00E948B0381110C9400000895FC01A4
:10074000A48DA80FB92FB11DA35ABF4F2C91848D32
:1007500090E001968F739927848FA689B7892C938F
:10076000A089B1898C91837080648C93938D848DE2
:10077000981306C00288F389E02D80818F7D8083E5
:100780000895EF92FF920F931F93CF93DF93EC01A5
:1007900081E0888F9B8D8C8D98131AC0E889F98928
:1007A000808185FF15C09FB7F894EE89FF8960832B
:1007B000E889F98980818370806480839FBF81E0AC
:1007C00090E0DF91CF911F910F91FF90EF900895EE
:1007D000F62E0B8D10E00F5F1F4F0F731127E02EC9
:1007E0008C8D8E110CC00FB607FCFACFE889F98901
:1007F000808185FFF5CFCE010E949F03F1CFEB8D65
:10080000EC0FFD2FF11DE35AFF4FF0829FB7F894D4
:100810000B8FEA89FB8980818062CFCF0F931F9372
:10082000CF93DF938C01D0E0C0E0F801EC0FFD1F07
:100830006491662341F088EA95E00E94C103892B08
:1008400011F02196F2CFCE01DF91CF911F910F9140
:100850000895CF93DF93EC01888D8823B9F0AA899E
:10086000BB89E889F9898C9185FD03C0808186FD6B
:100870000DC00FB607FCF7CF8C9185FFF2CF8081BA
:1008800085FFEDCFCE010E949F03E9CFDF91CF918D
:10089000089590E0FC01ED53FC4F2491FC01E155DB
:1008A000FC4F3491FC01E556FC4FE491EE23C9F076
:1008B000222339F0233001F1A8F4213019F122303C
:1008C00029F1F0E0EE0FFF1FEF56FC4FA591B49118
:1008D0008FB7F894EC91611126C030953E233C937C
:1008E0008FBF08952730A9F02830C9F0243049F788
:1008F000809180008F7D03C0809180008F778093EE
:100900008000DFCF84B58F7784BDDBCF84B58F7D4A
:10091000FBCF8091B0008F778093B000D2CF8091D1
:10092000B0008F7DF9CF3E2BDACFCF93DF9390E0ED
:10093000FC01E155FC4F249185569C4FFC018491AC
:100940008823D1F090E0880F991FFC01E957FC4FF4
:10095000A591B491FC01EF56FC4FC591D491623042
:1009600071F49FB7F8943C91822F809583238C93E8
:10097000E8812E2B28839FBFDF91CF9108958FB7F9
:10098000F894EC912E2B2C938FBFF6CF1F93CF931F
:10099000DF93182FEB0161E00E949504209739F452
:1009A00060E0812FDF91CF911F910C944904CF3FDC
:1009B000D10511F461E0F5CFE12FF0E0ED53FC4FEC
:1009C000E491E33031F140F4E130B1F0E230E1F0B4
:1009D000C038D1057CF7E4CFE73029F1E83059F190
:1009E000E430B1F780918000806280938000D093E2
:1009F0008B00C0938A0004C084B5806884BDC7BDE5
:100A0000DF91CF911F91089584B5806284BDC8BDE8
:100A1000F7CF80918000806880938000D093890018
:100A2000C0938800EDCF8091B00080688093B000C3
:100A3000C093B300E5CF8091B00080628093B00096
:100A4000C093B400DDCF2FB7F8946091AE017091E0
:100A5000AF018091B0019091B1012FBF08953F92F5
:100A60004F925F926F927F928F929F92AF92BF92BE
:100A7000CF92DF92EF92FF920F931F93CF93DF936A
:100A8000CDB7DEB72E970FB6F894DEBF0FBECDBF41
:100A90000E9423056D837E838F83988780917306E0
:100AA00090917406A0917506B09176064D815E8195
:100AB0006F817885481B590B6A0B7B0B80917F06F1
:100AC00090918006A0918106B0918206481759073F
:100AD0006A077B0708F43CC1E0916D06F0916E0651
:100AE00080819181A281B38189839A83AB83BC8306
:100AF000E0917106F09172069C01AD0160817181F7
:100B0000828193810E9455144B015C0120917B06E8
:100B100030917C0640917D0650917E0669817A81F4
:100B20008B819C810E9455146B017C012091610690
:100B3000309162064091630650916406C501B4018C
:100B40000E941E1320917706309178064091790615
:100B500050917A060E9456142B013C014092770670
:100B6000509278066092790670927A0630908C06E0
:100B700031101AC020915D0630915E0640915F06EB
:100B800050916006C701B6010E941E139B01AC0183
:100B9000C301B2010E9455146093770670937806E2
:100BA0008093790690937A06409077065090780665
:100BB0006090790670907A06109187069091880669
:100BC0009E87A0918906AD8700918A06212F392F33
:100BD0004A2F502FC301B2010E946A1518160CF05B
:100BE0009AC0812F9E85AD85B02F80937706909314
:100BF0007806A0937906B0937A06332009F4A4C04E
:100C000020915D0630915E0640915F06509160062E
:100C1000C501B4010E941E134B015C0120916506C1
:100C2000309166064091670650916806C701B6018B
:100C30000E941E139B01AC016091770670917806AB
:100C40008091790690917A060E945514A50194012D
:100C50000E9456146B017C019B01AC01612F7E85C3
:100C60008D85902F0E94B81287FD18C010918306C1
:100C7000909184069E87A0918506AD870091860697
:100C8000212F392F4A2F502FB601C7010E94B812C9
:100C900087FD04C01C2DDE86ED860F2DE0916F06CA
:100CA000F0917006812F9E85AD85B02F8083918352
:100CB000A283B38389819A81AB81BC8180937B06B7
:100CC00090937C06A0937D06B0937E068D819E81D5
:100CD000AF81B8858093730690937406A0937506D0
:100CE000B093760681E02E960FB6F894DEBF0FBE65
:100CF000CDBFDF91CF911F910F91FF90EF90DF90CB
:100D0000CF90BF90AF909F908F907F906F905F90AB
:100D10004F903F9008958091830690918406A09112
:100D20008506B091860689879A87AB87BC879C0128
:100D3000AD01C301B2010E94B81287FF5ECF898561
:100D40009A85AB85BC8551CF812C912C540166CFFF
:100D500080E0C9CF0F931F930E9423056093B005D5
:100D60007093B1058093B2059093B30588EA95E03E
:100D70000E94710397FF1DC00E9423050091B005DA
:100D80001091B1052091B2053091B305601B710B34
:100D9000820B930B0091AC051091AD052091AE052F
:100DA0003091AF056017710782079307F8F28FEF54
:100DB0009FEF1F910F9108958F929F92AF92BF92D4
:100DC000CF92DF92EF92FF92CF93DF930E94AA0619
:100DD000FC0197FD88C08D32910509F04CC0812C33
:100DE000912C80E8A82E8FE3B82EC12CD12C76014F
:100DF000C0E0D0E0E130F10559F1ED32F10509F440
:100E000047C0EE32F10509F445C0CF01C0970A97FB
:100E1000F8F4AAE0B0E0A70196010E9411146F0156
:100E2000FF0FEE08FF08C60ED71EE81EF91E80E36E
:100E3000C81AD108E108F108CC2351F02DEC3CECA4
:100E40004CEC5DE3C501B4010E941E134B015C0133
:100E500088EA95E00E945D030E94AA06FC01C09703
:100E60000A9740F2EE32F105B9F4CC2319F2CD2FF6
:100E7000D11118C025C0C0970A9708F4B0CFEE3240
:100E8000F10509F4ACCF88EA95E00E945D039ECF9E
:100E9000D1E0DECFC1E0DCCFE130F10509F4AACF2B
:100EA000DD2341F0F094E094D094C094C11CD11C97
:100EB000E11CF11CC701B6010E94BF12CC2341F016
:100EC000C701B6010E94BF12A50194010E941E1322
:100ED000DF91CF91FF90EF90DF90CF90BF90AF90D8
:100EE0009F908F90089560E070E0CB01F1CF08955E
:100EF0008091A4059091A505A091A605B091A705A4
:100F00000297A105B1056CF58091A4059091A50506
:100F1000A091A605B091A705181619061A061B067A
:100F20005CF080910001811107C081E08093000195
:100F300061E084E00C9449048091A4059091A5059A
:100F4000A091A605B091A705181619061A061B064A
:100F500044F480910001882321F01092000160E0A8
:100F6000E8CF08958091A0059091A105A091A205D8
:100F7000B091A305309B0CC00197A109B1098093E2
:100F8000A0059093A105A093A205B093A305089591
:100F90000196A11DB11DF3CFCF93DF93EC0170E05B
:100FA00060E097FF0CC089E00E94C604662777279F
:100FB0006C1B7D0B8AE0DF91CF910C94C6048AE014
:100FC0000E94C604BE0189E0F6CFFC01019000201A
:100FD000E9F73197AF01481B590BBC0188EA95E04E
:100FE0000C9421038F929F92AF92BF920F931F9305
:100FF000CF93DF93CDB7DEB7A1970FB6F894DEBFDE
:101000000FBECDBF19A2423008F44AE08E010F5D39
:101010001F4F842E912CB12CA12CA50194010E946C
:101020002414E62FB901CA01EA30F4F4E05DD801D6
:10103000EE938D01232B242B252B79F790E080E074
:10104000109719F0CD010E94E507A1960FB6F8940C
:10105000DEBF0FBECDBFDF91CF911F910F91BF902B
:10106000AF909F908F900895E95CE1CFCF92DF928F
:10107000EF92FF92CF93DF936B017C016DE288EAE0
:1010800095E00E94C103EC0166277727CB016C191C
:101090007D098E099F094AE00E94F2078C0F9D1F6F
:1010A000DF91CF91FF90EF90DF90CF9008954F9216
:1010B0005F926F927F928F929F92AF92BF92CF92E8
:1010C000DF92EF92FF920F931F93CF936B017C01FE
:1010D000742EAC019B010E946F15882399F08FE359
:1010E00091E0CF911F910F91FF90EF90DF90CF9003
:1010F000BF90AF909F908F907F906F905F904F9038
:101100000C94E50746015701E894B7F82FEF3FEF3D
:101110004FE75FE7C501B4010E946F1581110DC053
:101120002FEF3FEF4FE75FE7C501B4010E94B81210
:1011300018161CF483E491E0D4CF2FEF3FEF4FE774
:101140005FE4C701B6010E946A1518161CF487E413
:1011500091E0C7CF2FEF3FEF4FE75FECC701B6013C
:101160000E94B81287FDF3CF20E030E0A901C7014B
:10117000B6010E94B81210E000E087FF0AC06DE2DD
:1011800088EA95E00E94C1038C01F7FAF094F7F821
:10119000F094C0E060E070E080E09FE37C1641F0F6
:1011A00020E030E040E251E40E94C214CF5FF6CF6D
:1011B000A70196010E9456142B013C010E943B1589
:1011C0004B015C014AE00E94F2077C01E00EF11E37
:1011D000CC23C1F1C501B4010E94BD129B01AC0139
:1011E000C301B2010E9455144B015C016EE288EA12
:1011F00095E00E94C103E80EF91EC15018F120E0ED
:1012000030E040E251E4C501B4010E941E132B01FD
:101210003C010E943B154B01B12CA12C4AE0C501B9
:10122000B4010E94F207E80EF91EC501B4010E9444
:10123000BD129B01AC01C301B2010E9455144B01C8
:101240005C01DBCFC701CF911F910F91FF90EF9011
:10125000DF90CF90BF90AF909F908F907F906F90D6
:101260005F904F900895CF93DF930E94E507EC01C4
:101270008BE491E00E94E5078C0F9D1FDF91CF91D9
:101280000895CF93DF930E940E04EC018BE491E06C
:101290000E94E5078C0F9D1FDF91CF9108958FE18C
:1012A00093E00E94410986E193E00E9441098FED9D
:1012B00092E00E94410986EB92E00E94410981E997
:1012C00092E00E9441098AE692E00E94410981E38E
:1012D00092E00E9441098CEE91E00E9441098DE765
:1012E00091E00E94410980E491E00E9441098FEF62
:1012F00090E00E9441098AED90E00E9441098FE947
:1013000090E00E94410988E890E00C9441098EE742
:1013100090E00E940E046091A4057091A505809153
:10132000A6059091A70597FF2CC00E94360881E77B
:1013300090E00E940E046091490670914A068091E7
:101340004B0690914C0642E00E94570888E690E0D8
:101350000E940E04609145067091460680914706F2
:101360009091480642E00E94570880910001811147
:1013700004C08EE491E00E94E50783E591E00C94BF
:1013800033094AE00E94F207D2CF8F929F92AF9228
:10139000BF92CF92DF92EF92FF9260E084E00E94D2
:1013A000490489E591E00E943309C12CD12C7601D2
:1013B0000E942305681979098A099B09683071051B
:1013C0008105910508F446C020E030E040EA51E490
:1013D00060914506709146068091470690914806B7
:1013E0000E94551460934506709346068093470605
:1013F000909348060E9423054B015C0184E691E02E
:101400000E94E50760914506709146068091470667
:101410009091480642E00E9457088EE691E00E94B3
:10142000E50760914D0670914E0680914F069091B0
:10143000500642E00E94570888E791E00E94E507C5
:10144000F7FE2FC0C701B6010E9436088BE491E079
:101450000E94E5076091A4057091A5058091A605FD
:101460009091A7050E94BF129B01AC0120934D06ED
:1014700030934E0640934F065093500660914506B8
:101480007091460680914706909148060E94551437
:101490000E9434156B017C0180918B06811107C07D
:1014A000FFCF4AE0C701B6010E94F207CFCF0E94EA
:1014B0002F05882389F36091490670914A0680912F
:1014C0004B0690914C060E943415CB010E94CC072C
:1014D00088E3C8168FEFD806E806F8060CF068CF48
:1014E0008EEC9FEFAFEFBFEF8093A4059093A5051F
:1014F000A093A605B093A7051092A0051092A10590
:101500001092A2051092A305FF90EF90DF90CF906C
:10151000BF90AF909F908F900895CF92DF92EF92FF
:10152000FF920F931F93CF93DF9300D000D0CDB7DE
:10153000DEB76E0125E0C20ED11C8E010F5F1F4F7A
:101540007C01E01AF10AC016D10649F0C701800FEC
:10155000911F0E94DC13F80181938F01F4CF698100
:101560007A818B819C810F900F900F900F90DF916B
:10157000CF911F910F91FF90EF90DF90CF90089542
:101580004F925F926F927F928F929F92AF92BF9293
:10159000CF92DF92EF92FF920F931F93CF93DF933F
:1015A000D0E0C0E0C12CD12C7601CE010E94DC132A
:1015B000682F70E090E080E00E94BF129B01AC01B8
:1015C000C701B6010E9456146B017C012196CC30F4
:1015D000D10559F78CE090E00E948D0A9B01AC0187
:1015E000C701B6010E94B812811145C087E593E09A
:1015F0000E94410990E080E00E948D0A4B015C014D
:101600008092050190920601A0920701B092080114
:1016100084E090E00E948D0A2B013C0140928D06EF
:1016200050928E0660928F067092900688E090E04D
:101630000E948D0A609391067093920680939306A0
:10164000909394067B018C01A3019201C501B40122
:101650000E941702DF91CF911F910F91FF90EF90A1
:10166000DF90CF90BF90AF909F908F907F906F90C2
:101670005F904F90089586E793E0DF91CF911F919F
:101680000F91FF90EF90DF90CF90BF90AF909F9021
:101690008F907F906F905F904F900C944109CF9204
:1016A000DF92EF92FF920F931F93CF93DF9300D0BF
:1016B00000D0CDB7DEB769837A838B839C836A01C0
:1016C000CE0101967C0110E000E00430110559F0D4
:1016D000F70161917F01C601800F911F0E94E41301
:1016E0000F5F1F4FF2CF0F900F900F900F90DF9171
:1016F000CF911F910F91FF90EF90DF90CF900895C1
:101700001F920F920FB60F9211242F933F934F9376
:101710005F936F937F938F939F93AF93BF93EF9359
:10172000FF9388EA95E00E949F03FF91EF91BF919C
:10173000AF919F918F917F916F915F914F913F9169
:101740002F910F900FBE0F901F9018951F920F9220
:101750000FB60F9211242F938F939F93EF93FF93C4
:10176000E091B805F091B9058081E091BE05F09156
:10177000BF0582FD1BC090818091C1058F5F8F7373
:101780002091C205821741F0E091C105F0E0E855D3
:10179000FA4F958F8093C105FF91EF919F918F91A3
:1017A0002F910F900FBE0F901F9018958081F4CF4E
:1017B0001F920F920FB60F9211242F933F938F9386
:1017C0009F93AF93BF938091AE019091AF01A09191
:1017D000B001B091B1013091AD0123E0230F2D375D
:1017E00058F50196A11DB11D2093AD018093AE0166
:1017F0009093AF01A093B001B093B1018091A90182
:101800009091AA01A091AB01B091AC010196A11DEC
:10181000B11D8093A9019093AA01A093AB01B0934D
:10182000AC01BF91AF919F918F913F912F910F90FC
:101830000FBE0F901F90189526E8230F0296A11D4A
:10184000B11DD2CF1F920F920FB60F9211242F937A
:101850003F934F935F936F937F938F939F93AF9338
:10186000BF93EF93FF93E0910301F0910401099579
:10187000FF91EF91BF91AF919F918F917F916F9168
:101880005F914F913F912F910F900FBE0F901F903E
:1018900018951F920F920FB60F9211242F933F931A
:1018A0004F935F936F937F938F939F93AF93BF9368
:1018B000EF93FF93E0910101F09102010995FF91EF
:1018C000EF91BF91AF919F918F917F916F915F91B8
:1018D0004F913F912F910F900FBE0F901F90189531
:1018E0001F920F920FB60F9211244F935F936F9335
:1018F0007F938F939F93AF93BF93EF93FF93E09169
:10190000A801EE0FEE0F93B189B1869582709170A8
:10191000892B8093A8014091A4055091A505609161
:10192000A6057091A705E80FFF27FF1FEE0FFF1F09
:10193000E35FFE4F80819181092E000CAA0BBB0B47
:10194000840F951FA61FB71F8093A4059093A5052C
:10195000A093A605B093A705FF91EF91BF91AF911A
:101960009F918F917F916F915F914F910F900FBEDB
:101970000F901F9018954F925F926F927F928F9267
:101980009F92AF92BF92CF92DF92EF92FF9210920E
:10199000AB051092AA0588EE93E0A0E0B0E080933A
:1019A000AC059093AD05A093AE05B093AF0581E370
:1019B00091E09093A9058093A80585EC90E0909321
:1019C000B5058093B40584EC90E09093B7058093BF
:1019D000B60580EC90E09093B9058093B80581EC52
:1019E00090E09093BB058093BA0582EC90E09093D1
:1019F000BD058093BC0586EC90E09093BF05809375
:101A0000BE051092C1051092C2051092C305109236
:101A1000C405C0909106D0909206E0909306F09095
:101A2000940680908D0690908E06A0908F06B090C0
:101A3000900640900501509006016090070170905B
:101A4000080189E496E09093700680936F068DE418
:101A500096E090936E0680936D0685E496E09093F1
:101A600072068093710610928B0610928306109274
:101A70008406109285061092860680E090E0AFE71B
:101A8000B3E48093870690938806A0938906B09369
:101A90008A0684E690E0A0E0B0E080937F06909311
:101AA0008006A0938106B093820610926A06109277
:101AB000690620E030E0A901C301B2010E94B8121A
:101AC00087FD5AC020E030E0A901C501B4010E94A1
:101AD000B81287FD51C020E030E0A901C701B6016E
:101AE0000E94B81287FD48C081E090E090936C0698
:101AF00080936B0680938C0640925106509252065A
:101B00006092530670925406809255069092560643
:101B1000A0925706B0925806C0925906D0925A0623
:101B2000E0925B06F0925C0640925D0650925E0683
:101B300060925F06709260062DEC3CEC4CEC5DE32D
:101B4000C501B4010E941E13609361067093620682
:101B500080936306909364062DEC3CEC4CEC5DE3C3
:101B6000C701B6010E94C2146093650670936606B1
:101B700080936706909368060E942305C0907F06B5
:101B8000D0908006E0908106F09082066C197D0965
:101B90008E099F096093730670937406809375068F
:101BA00090937606FF90EF90DF90CF90BF90AF902C
:101BB0009F908F907F906F905F904F900895789452
:101BC00084B5826084BD84B5816084BD85B5826042
:101BD00085BD85B5816085BD80916E0081608093F3
:101BE0006E0010928100809181008260809381005C
:101BF000809181008160809381008091800081606C
:101C0000809380008091B10084608093B1008091C6
:101C1000B00081608093B00080917A0084608093EE
:101C20007A0080917A00826080937A0080917A00B5
:101C3000816080937A0080917A00806880937A0036
:101C40001092C10062E082E00E94950462E088E0A8
:101C50000E94950461E084E00E94950462E083E0C4
:101C60000E94950480916B00816080936B00D89AEC
:101C70008091680081608093680083EF92E0909388
:101C8000020180930101809169008C7F81608093C3
:101C90006900E89A82EB97E0909304018093030136
:101CA000809169008C6080936900E99A809181003D
:101CB000887F816080938100E091B805F091B9053B
:101CC00082E08083E091B405F091B5051082E09147
:101CD000B605F091B70580E180831092C005E091D0
:101CE000BC05F091BD0586E08083E091BA05F091D6
:101CF000BB05808180618083E091BA05F091BB05CE
:101D0000808188608083E091BA05F091BB05808175
:101D100080688083E091BA05F091BB0580818F7D5A
:101D200080830E944F090E94C00A80918B06C09157
:101D30006F06D0917006811145C0C880D980EA80B5
:101D4000FB80C0927706D0927806E0927906F092F6
:101D50007A06E0916D06F0916E0680819181A281F4
:101D6000B38180937B0690937C06A0937D06B0930D
:101D70007E068090870690908806A0908906B09095
:101D80008A06A5019401C701B6010E946A151816BA
:101D90004CF48092770690927806A0927906B092E1
:101DA0007A0610C08090830690908406A0908506E5
:101DB000B0908606A5019401C701B6010E94B81231
:101DC00087FDE7CF81E080938B0660917F0670915D
:101DD000800680918106909182060E94BD129B012F
:101DE000AC0160E070E080E89FE30E94C2146B01E8
:101DF0007C01AC019B01609161067091620680914B
:101E00006306909164060E941E13609361067093AE
:101E100062068093630690936406A7019601609121
:101E200065067091660680916706909168060E942B
:101E3000C21460936506709366068093670690935C
:101E4000680681E090E0A0E0B0E080937F06909388
:101E50008006A0938106B0938206C12CD12C3FE767
:101E6000E32E33ECF32EC0928306D0928406E092E8
:101E70008506F0928606412C512C4FE7642E43E4F0
:101E8000742E40928706509288066092890670925E
:101E90008A0688809980AA80BB80A3019201C5012F
:101EA000B4010E946A1518162CF5488259826A827C
:101EB0007B828090770690907806A0907906B0900B
:101EC0007A06C0908706D0908806E0908906F09048
:101ED0008A06A7019601C501B4010E946A15181669
:101EE000C4F4C0927706D0927806E0927906F09218
:101EF0007A061FC020E030E04FE753ECC501B40183
:101F00000E94B81287FFD5CFC882D982EA82FB82AD
:101F1000D0CFC0908306D0908406E0908506F090E4
:101F20008606A7019601C501B4010E94B81287FD7B
:101F3000D8CF0E94C5090E944F0998EE892E93E0E0
:101F4000992EA12CB12C28E2422E23E2522E612C94
:101F5000712C80E0282E80E0382E6091A4057091CD
:101F6000A5058091A6059091A7050E94BF126093D8
:101F70004D0670934E0680934F06909350066091E5
:101F8000A0057091A1058091A2059091A3050E94E2
:101F9000BF12609345067093460680934706909360
:101FA000480680918B06811103C00E947807F9CF03
:101FB0000E942F05D82F8823C1F388EA95E00E945C
:101FC0007F03892B09F467C088EA95E00E945D03CE
:101FD0008B350CF08052E1ECE80FEA3108F055C087
:101FE0000E2E000CFF0BE950F04F0C948015F810EA
:101FF0004510671145104510C61045104510451095
:10200000A011E3104510EA110212451045104510C9
:1020100029106E11FF111110601145104510A31108
:10202000FF10C2EBD1E020919A0530919B05CE01C3
:10203000825B91408217930744F5699170E090E0CC
:1020400080E04AE00E94F2078BE491E00E94E507FD
:10205000EACF0E94DC06609305017093060180932D
:10206000070190930801E0909106F090920600918C
:1020700093061091940620918D0630918E06409122
:102080008F06509190060E94170288EA95E00E9400
:102090005D030A97D1F7209145063091460640919D
:1020A00047065091480660914D0670914E0680910A
:1020B0004F06909150060E94B8128111A6C190E07F
:1020C00080E00E94CC0780919F058823C1F00E9488
:1020D0002305A50194010E942414672B682B692B0A
:1020E00071F40E946012A30192010E94F2136093A6
:1020F000A0057093A1058093A2059093A3058091FC
:102100009E05882361F00E942305A50194010E9489
:102110002414672B682B692B11F40E948709809186
:102120009D05882329F180919C0591E0980F90935B
:102130009C0565E00E94741591111AC04091A40598
:102140005091A5056091A6057091A70580919A050B
:1021500090919B05FC01EE54FE4F4083873E23E0A7
:1021600092070CF05EC1019690939B0580939A05AF
:102170000E9478072114310409F4EFCE0E948B03EA
:10218000882309F4EACE0E940000E3CE0E94DC0618
:102190007B018C01E0929106F092920600939306E7
:1021A0001093940620918D0630918E0640918F06F3
:1021B0005091900660910501709106018091070190
:1021C0009091080160CF0E94DC069B01AC01209336
:1021D0008D0630938E0640938F0650939006E090C4
:1021E0009106F09092060091930610919406E2CF2A
:1021F0000E9487094ACF88EA95E00E945D030E9409
:10220000AA06FC0197FD58C08D32910519F0C097C0
:102210000A9788F7C12CD12C7601C0E0E130F10596
:10222000D9F0ED32F10509F445C0CF01C0970A9706
:1022300098F4AAE0B0E0A70196010E9411146F0182
:10224000FF0FEE08FF08C60ED71EE81EF91E20E39A
:10225000C21AD108E108F10888EA95E00E945D03FE
:102260000E94AA06FC01C0970A97C0F2E130F1056E
:10227000A9F2CC2341F0F094E094D094C094C11C16
:10228000D11CE11CF11CC092A005D092A105E092E6
:10229000A205F092A30510929B0510929A0581E089
:1022A00080939D05E2EBF1E0119292E0EE3DF9079B
:1022B000D9F7EBCECD2FD0CFC12CD12C7601E3CFE7
:1022C00080919F0521E0822780939F05DECE80913B
:1022D0009E0591E0892780939E05D7CE80E891E006
:1022E0000E94E50760910501709106018091070148
:1022F0009091080142E00E94570883E891E00E9413
:10230000E50760918D0670918E0680918F06909101
:10231000900642E00E94570887E891E00E94E50796
:102320006091910670919206809193069091940627
:1023300042E00E9457088BE491E00E94E507A5CE99
:102340000E944F09A2CE6091050170910601809113
:1023500007019091080150E040E00E944F0B60910E
:102360008D0670918E0680918F069091900644E0C4
:1023700050E00E944F0B60919106709192068091FF
:1023800093069091940648E050E00E944F0BC12CB8
:10239000D12C7601D0E0C0E0CE010E94DC13682F82
:1023A00070E090E080E00E94BF129B01AC01C70189
:1023B000B6010E9456146B017C012196CC30D105E8
:1023C00059F74CE050E00E944F0B8BE891E00E94DF
:1023D00033095BCED0E0C0E0CE010E94DC13682F51
:1023E00070E090E080E040E10E94F20786E791E033
:1023F0000E94E5072196C031D10571F79CCF0E945C
:10240000C00A43CE0E94C50940CE60914906709132
:102410004A0680914B0690914C060E943415CB01E0
:1024200050CE10929D05A4CE8F929F92AF92BF92F4
:10243000CF92DF92EF92FF92CF93DF93EC0168810E
:1024400079818A819B81611571058105910521F44E
:1024500064E279ED8BE597E02DE133EF41E050E068
:102460000E94F21349015A019B01AC01A7EAB1E4B1
:102470000E9411146B017C01ACEEB4EFA501940134
:102480000E941F14C60ED71EE81EF91EF7FE06C0D6
:1024900081E0C81AD108E10880E8F80AC882D98228
:1024A000EA82FB82C701B6019F77DF91CF91FF904F
:1024B000EF90DF90CF90BF90AF909F908F90089556
:1024C0008F929F92AF92BF92CF92DF92EF92FF9244
:1024D0006091090170910A0180910B0190910C01AA
:1024E000611571058105910521F464E279ED8BE5B3
:1024F00097E02DE133EF41E050E00E94F2134901F3
:102500005A019B01AC01A7EAB1E40E9411146B01CE
:102510007C01ACEEB4EFA50194010E941F14C60E1D
:10252000D71EE81EF91EF7FE06C081E0C81AD108C2
:10253000E10880E8F80AC0920901D0920A01E0920D
:102540000B01F0920C01C701B6019F77FF90EF904D
:10255000DF90CF90BF90AF909F908F900895609341
:10256000090170930A0180930B0190930C01089567
:102570000E94FA1208F481E00895E89409C097FBDC
:102580003EF490958095709561957F4F8F4F9F4F4A
:102590009923A9F0F92F96E9BB279395F69587958E
:1025A00077956795B795F111F8CFFAF4BB0F11F451
:1025B00060FF1BC06F5F7F4F8F4F9F4F16C08823F8
:1025C00011F096E911C0772321F09EE8872F762F2E
:1025D00005C0662371F096E8862F70E060E02AF06F
:1025E0009A95660F771F881FDAF7880F969587955B
:1025F00097F90895990F0008550FAA0BE0E8FEEF30
:1026000016161706E807F907C0F012161306E407B6
:10261000F50798F0621B730B840B950B39F40A26AF
:1026200061F0232B242B252B21F408950A2609F48D
:10263000A140A6958FEF811D811D08950E94311341
:102640000C94A2130E94941338F00E949B1320F064
:10265000952311F00C948B130C94911311240C946A
:10266000D6130E94B31370F3959FC1F3950F50E0FA
:10267000551F629FF001729FBB27F00DB11D639F34
:10268000AA27F00DB11DAA1F649F6627B00DA11DDA
:10269000661F829F2227B00DA11D621F739FB00D80
:1026A000A11D621F839FA00D611D221F749F3327F0
:1026B000A00D611D231F849F600D211D822F762F89
:1026C0006A2F11249F5750409AF0F1F088234AF066
:1026D000EE0FFF1FBB1F661F771F881F91505040D2
:1026E000A9F79E3F510580F00C948B130C94D613E0
:1026F0005F3FE4F3983ED4F3869577956795B79559
:10270000F795E7959F5FC1F7FE2B880F911D969572
:10271000879597F9089597F99F6780E870E060E0E2
:1027200008959FEF80EC089500240A94161617066A
:1027300018060906089500240A94121613061406B2
:1027400005060895092E0394000C11F4882352F015
:10275000BB0F40F4BF2B11F460FF04C06F5F7F4FCD
:102760008F4F9F4F089557FD9058440F551F59F0B4
:102770005F3F71F04795880F97FB991F61F09F3F6E
:1027800079F087950895121613061406551FF2CF97
:102790004695F1DF08C0161617061806991FF1CFE7
:1027A00086957105610508940895E894BB2766270E
:1027B0007727CB0197F90895F999FECF92BD81BD96
:1027C000F89A992780B50895262FF999FECF1FBA58
:1027D00092BD81BD20BD0FB6F894FA9AF99A0FBE4A
:1027E00001960895052E97FB1EF400940E9409148B
:1027F00057FD07D00E94241407FC03D04EF40C941C
:10280000091450954095309521953F4F4F4F5F4F9C
:10281000089590958095709561957F4F8F4F9F4F4C
:1028200008950E944614A59F900DB49F900DA49FFB
:10283000800D911D11240895B7FF0C9411140E946E
:102840001114821B930B0895A1E21A2EAA1BBB1B25
:10285000FD010DC0AA1FBB1FEE1FFF1FA217B3076C
:10286000E407F50720F0A21BB30BE40BF50B661F82
:10287000771F881F991F1A9469F760957095809546
:1028800090959B01AC01BD01CF010895A29FB001BD
:10289000B39FC001A39F700D811D1124911DB29F94
:1028A000700D811D1124911D08955058BB27AA2732
:1028B0000E946D140C94A2130E94941338F00E948D
:1028C0009B1320F039F49F3F19F426F40C949113D4
:1028D0000EF4E095E7FB0C948B13E92F0E94B313E1
:1028E00058F3BA17620773078407950720F079F445
:1028F000A6F50C94D5130EF4E0950B2EBA2FA02D4F
:102900000B01B90190010C01CA01A0011124FF279C
:10291000591B99F0593F50F4503E68F11A16F04097
:10292000A22F232F342F4427585FF3CF4695379596
:102930002795A795F0405395C9F77EF41F16BA0B5B
:10294000620B730B840BBAF09150A1F0FF0FBB1F09
:10295000661F771F881FC2F70EC0BA0F621F731F52
:10296000841F48F4879577956795B795F7959E3FAF
:1029700008F0B0CF9395880F08F09927EE0F979540
:10298000879508950E94D6140C94A2130E949B135D
:1029900058F00E94941340F029F45F3F29F00C9402
:1029A0008B1351110C94D6130C9491130E94B313F2
:1029B00068F39923B1F3552391F3951B550BBB276E
:1029C000AA2762177307840738F09F5F5F4F220FB3
:1029D000331F441FAA1FA9F335D00E2E3AF0E0E8AA
:1029E00032D091505040E695001CCAF72BD0FE2FF4
:1029F00029D0660F771F881FBB1F26173707480788
:102A0000AB07B0E809F0BB0B802DBF01FF2793583F
:102A10005F4F3AF09E3F510578F00C948B130C9465
:102A2000D6135F3FE4F3983ED4F386957795679588
:102A3000B795F7959F5FC9F7880F911D9695879574
:102A400097F90895E1E0660F771F881FBB1F621793
:102A500073078407BA0720F0621B730B840BBA0B51
:102A6000EE1F88F7E09508950E943B156894B11118
:102A70000C94D61308950E94BB1388F09F5798F0CA
:102A8000B92F9927B751B0F0E1F0660F771F881F73
:102A9000991F1AF0BA95C9F714C0B13091F00E948D
:102AA000D513B1E008950C94D513672F782F88279C
:102AB000B85F39F0B93FCCF3869577956795B395B4
:102AC000D9F73EF490958095709561957F4F8F4F23
:102AD0009F4F08950E94FA1208F48FEF08950E9404
:102AE000FA12880B990B0895991B79E004C0991F7D
:102AF000961708F0961B881F7A95C9F78095089558
:102B0000EE0FFF1F0590F491E02D0994F894FFCF8C
:102B1000017707770700004040010000000000FF38
:102B2000FF01000200010000000200FFFFFFFF02A2
:102B3000000000010002000100FFFF000000000093
:102B400000C10321034E0329047F035D0371036E5B
:102B5000616E00696E66006F7666000D0A00204E99
:102B60004F540020686F6D6500686F6D696E672057
:102B70002E2E2E00736574706F696E7420002065B0
:102B80006E636F6465722000206572726F72200040
:102B9000503D0020493D0020443D000A504944205A
:102BA00076616C7565732073746F72656420746FE1
:082BB00020454550524F4D0035
:107E0000112484B714BE81FFF0D085E080938100F7
:107E100082E08093C00088E18093C10086E0809377
:107E2000C20080E18093C4008EE0C9D0259A86E02C
:107E300020E33CEF91E0309385002093840096BBD3
:107E4000B09BFECF1D9AA8958150A9F7CC24DD24C4
:107E500088248394B5E0AB2EA1E19A2EF3E0BF2EE7
:107E6000A2D0813461F49FD0082FAFD0023811F036
:107E7000013811F484E001C083E08DD089C08234E0
:107E800011F484E103C0853419F485E0A6D080C0E4
:107E9000853579F488D0E82EFF2485D0082F10E0AE
:107EA000102F00270E291F29000F111F8ED06801E7
:107EB0006FC0863521F484E090D080E0DECF843638
:107EC00009F040C070D06FD0082F6DD080E0C81688
:107ED00080E7D80618F4F601B7BEE895C0E0D1E017
:107EE00062D089930C17E1F7F0E0CF16F0E7DF06D8
:107EF00018F0F601B7BEE89568D007B600FCFDCFD4
:107F0000A601A0E0B1E02C9130E011968C91119780
:107F100090E0982F8827822B932B1296FA010C0160
:107F200087BEE89511244E5F5F4FF1E0A038BF0790
:107F300051F7F601A7BEE89507B600FCFDCF97BE46
:107F4000E89526C08437B1F42ED02DD0F82E2BD052
:107F50003CD0F601EF2C8F010F5F1F4F84911BD097
:107F6000EA94F801C1F70894C11CD11CFA94CF0C13
:107F7000D11C0EC0853739F428D08EE10CD085E9AC
:107F80000AD08FE07ACF813511F488E018D01DD067
:107F900080E101D065CF982F8091C00085FFFCCF94
:107FA0009093C60008958091C00087FFFCCF809118
:107FB000C00084FD01C0A8958091C6000895E0E648
:107FC000F0E098E1908380830895EDDF803219F02E
:107FD00088E0F5DFFFCF84E1DECF1F93182FE3DFCA
:107FE0001150E9F7F2DF1F91089580E0E8DFEE27F6
:047FF000FF270994CA
:027FFE00040479
:0400000300007E007B
:00000001FF
